{
  "indexed_txo": [
    "76a914ab68025513c3dbd2f7b92a94e0581f5d50f654e788ac",
    "76a9147f9b1a7fb68d60c536c2fd8aeaa53a8f3cc025a888ac"
  ],
  "raw": "0100000001186f9f998a5aa6f048e51dd8419a14d8a0f1a8a2836dd734d2804fe65fa35779000000008b483045022100884d142d86652a3f47ba4746ec719bbfbd040a570b1deccbb6498c75c4ae24cb02204b9f039ff08df09cbe9f6addac960298cad530a863ea8f53982c09db8f6e381301410484ecc0d46f1918b30928fa0e4ed99f16a0fb4fde0735e7ade8416ab9fe423cc5412336376789d172787ec3457eee41c04f4938de5cc17b4a10fa336a8d752adfffffffff0260e31600000000001976a914ab68025513c3dbd2f7b92a94e0581f5d50f654e788acd0ef8000000000001976a9147f9b1a7fb68d60c536c2fd8aeaa53a8f3cc025a888ac00000000",
  "spends": null,
  "tx": {
    "blockhash": "0000000000000001b6b9a13b095e96db41c4a928b97ef2d944a9b31b2cc7bdc4",
    "blocktime": 1388185914,
    "confirmations": 639791,
    "hash": "0627052b6f28912f2703066a912ea577f2ce4da4caa5a5fbd8a57286c345c2f2",
    "hex": "0100000001186f9f998a5aa6f048e51dd8419a14d8a0f1a8a2836dd734d2804fe65fa35779000000008b483045022100884d142d86652a3f47ba4746ec719bbfbd040a570b1deccbb6498c75c4ae24cb02204b9f039ff08df09cbe9f6addac960298cad530a863ea8f53982c09db8f6e381301410484ecc0d46f1918b30928fa0e4ed99f16a0fb4fde0735e7ade8416ab9fe423cc5412336376789d172787ec3457eee41c04f4938de5cc17b4a10fa336a8d752adfffffffff0260e31600000000001976a914ab68025513c3dbd2f7b92a94e0581f5d50f654e788acd0ef8000000000001976a9147f9b1a7fb68d60c536c2fd8aeaa53a8f3cc025a888ac00000000",
    "locktime": 0,
    "size": 258,
    "time": 1388185914,
    "txid": "0627052b6f28912f2703066a912ea577f2ce4da4caa5a5fbd8a57286c345c2f2",
    "version": 1,
    "vin": [
      {
        "scriptSig": {
          "asm": "3045022100884d142d86652a3f47ba4746ec719bbfbd040a570b1deccbb6498c75c4ae24cb02204b9f039ff08df09cbe9f6addac960298cad530a863ea8f53982c09db8f6e3813[ALL] 0484ecc0d46f1918b30928fa0e4ed99f16a0fb4fde0735e7ade8416ab9fe423cc5412336376789d172787ec3457eee41c04f4938de5cc17b4a10fa336a8d752adf",
          "hex": "483045022100884d142d86652a3f47ba4746ec719bbfbd040a570b1deccbb6498c75c4ae24cb02204b9f039ff08df09cbe9f6addac960298cad530a863ea8f53982c09db8f6e381301410484ecc0d46f1918b30928fa0e4ed99f16a0fb4fde0735e7ade8416ab9fe423cc5412336376789d172787ec3457eee41c04f4938de5cc17b4a10fa336a8d752adf"
        },
        "sequence": 4294967295,
        "txid": "7957a35fe64f80d234d76d83a2a8f1a0d8149a41d81de548f0a65a8a999f6f18",
        "vout": 0,
        "vout_data": {
          "value": 0.1,
          "n": 0,
          "scriptPubKey": {
            "asm": "OP_DUP OP_HASH160 7f9b1a7fb68d60c536c2fd8aeaa53a8f3cc025a8 OP_EQUALVERIFY OP_CHECKSIG",
            "desc": "addr(1Cdid9KFAaatwczBwBttQcwXYCpvK8h7FK)#e6ft626y",
            "hex": "76a9147f9b1a7fb68d60c536c2fd8aeaa53a8f3cc025a888ac",
            "address": "1Cdid9KFAaatwczBwBttQcwXYCpvK8h7FK",
            "type": "pubkeyhash"
          }
        }
      }
    ],
    "vout": [
      {
        "n": 0,
        "scriptPubKey": {
          "address": "1GdK9UzpHBzqzX2A9JFP3Di4weBwqgmoQA",
          "asm": "OP_DUP OP_HASH160 ab68025513c3dbd2f7b92a94e0581f5d50f654e7 OP_EQUALVERIFY OP_CHECKSIG",
          "desc": "addr(1GdK9UzpHBzqzX2A9JFP3Di4weBwqgmoQA)#ykrtxd0a",
          "hex": "76a914ab68025513c3dbd2f7b92a94e0581f5d50f654e788ac",
          "type": "pubkeyhash"
        },
        "value": 0.015
      },
      {
        "n": 1,
        "scriptPubKey": {
          "address": "1Cdid9KFAaatwczBwBttQcwXYCpvK8h7FK",
          "asm": "OP_DUP OP_HASH160 7f9b1a7fb68d60c536c2fd8aeaa53a8f3cc025a8 OP_EQUALVERIFY OP_CHECKSIG",
          "desc": "addr(1Cdid9KFAaatwczBwBttQcwXYCpvK8h7FK)#e6ft626y",
          "hex": "76a9147f9b1a7fb68d60c536c2fd8aeaa53a8f3cc025a888ac",
          "type": "pubkeyhash"
        },
        "value": 0.0845
      }
    ],
    "vsize": 258,
    "weight": 1032
  },
  "txid": "0627052b6f28912f2703066a912ea577f2ce4da4caa5a5fbd8a57286c345c2f2"
}